:100000000C942A000C9434000C9434000C943400AA
:100010000C9434000C9434000C9434000C94340090
:100020000C9434000C9434000C9434000C94340080
:100030000C9434000C9434000C9434000C94340070
:100040000C9434000C9434000C9434000C94340060
:100050000C94340011241FBECFE5D8E0DEBFCDBF25
:100060000E9436000C947F000C9400008FE08ABB45
:1000700071E028EC30E062E054E048E07BBB80E1D6
:1000800097E2F9013197F1F70197D9F71BBA80E1AF
:1000900097E2F9013197F1F70197D9F76BBB80E14E
:1000A00097E2F9013197F1F70197D9F71BBA80E18F
:1000B00097E2F9013197F1F70197D9F75BBB80E13E
:1000C00097E2F9013197F1F70197D9F71BBA80E16F
:1000D00097E2F9013197F1F70197D9F74BBB80E12E
:1000E00097E2F9013197F1F70197D9F71BBA80E14F
:1000F00097E2F9013197F1F70197D9F7BFCFF8945B
:02010000FFCF2F
:00000001FF
